:020000040800F2
:1000000088410020E30100084D0400084F04000867
:1000100053040008570400085B04000800000000B7
:10002000000000000000000000000000490100087E
:100030005F040008000000008D0100084769000807
:10004000030200080302000803020008AB75000861
:10005000030200080302000803020008030200086C
:10006000030200080302000803020008030200085C
:10007000030200080302000803020008030200084C
:10008000030200080302000803020008030200083C
:10009000030200080302000803020008030200082C
:1000A000030200080302000803020008030200081C
:1000B000030200080302000803020008030200080C
:1000C00003020008030200080302000803020008FC
:1000D00003020008C3050008030200080302000829
:1000E00003020008030200080302000803020008DC
:1000F00003020008030200080302000803020008CC
:1001000003020008030200080302000803020008BB
:1001100003020008030200080302000803020008AB
:10012000030200080302000803020008030200089B
:10013000DFF810D007F0F0FB00480047BF020008CE
:10014000AFF3008088410020224B19680868B0E8AE
:10015000F00F80F30988BFF36F8F4FF0000080F33A
:1001600011884EF00D0E7047000000000648006830
:10017000006880F3088862B661B6BFF34F8FBFF3A3
:100180006F8F00DF00BF00BF08ED00E0EFF30980D4
:10019000BFF36F8F0F4B1A6820E9F00F106008B59E
:1001A0004FF0500080F31188BFF34F8FBFF36F8F74
:1001B00004F084FD4FF0000080F31188BDE8084092
:1001C00019680868B0E8F00F80F30988BFF36F8FF3
:1001D000704700BF48010020EFF305807047000022
:1001E000704708488047084981F308880748004756
:1001F000FEE7FEE7FEE7FEE7FEE7FEE7FEE7FEE7D7
:10020000FEE7FEE7E1010008884100203101000817
:1002100005462C4652E0A088B0F5005F25D1A188A4
:10022000206801F0C0F84FF47A71E068A0FB01602B
:1002300007460A4600233046394607F0C9FA804689
:1002400004F0DBFBA188206801F0ABF84FF47A7171
:10025000A068A0FB01614FF47A720023304607F0DA
:10026000B7FA804604F0C9FB28E0A088022825D10F
:10027000A188206801F095F84FF47A71A068A0FB7E
:10028000016007460A4600233046394607F0A0FAC7
:10029000804604F0B2FBA188206801F084F84FF496
:1002A0007A71E068A0FB016007460A4600233046E9
:1002B000394607F08DFA804604F09FFBABE71CB58A
:1002C00002F0B8FD4FF4407002F05AFA00F0E4F882
:1002D00006F0D1FE002006F0C0FB002006F0CBFBAC
:1002E00000F0BEF807F008FA4FF4E13000F016F91C
:1002F0004FF480732F4A3049304806F07FFF00F0FA
:10030000D0FB07F0EBF8002201210A2002F06BFE7F
:100310002B4908602B48032100234FF48072CDE95C
:10032000001029A12C4804F0A8F80020042103465D
:100330008022CDE9001029A12B4804F09EF82B481B
:1003400003212B4B8022CDE900102AA1AFF23F10F0
:1003500004F093F80020032103464FF40072CDE926
:10036000001027A12A4804F088F800200321034642
:100370004FF48072CDE9001026A1294804F07DF8E1
:10038000284801210023C422CDE9001026A12A48D3
:1003900004F073F80020052103464FF48072CDE984
:1003A000001026A1284804F068F804F082FE00BF7F
:1003B000FEE70000C401002004380140580002405C
:1003C0003C000020080000206F6C65646D656E7550
:1003D0005F7461736B000000F90F00086B65795F53
:1003E0007461736B00000000D30F00080000002050
:1003F0000C0000206C65645F7461736B3100000059
:10040000776966695F6765745F7461736B0000008C
:10041000BB080008646174615F70617273650000FD
:10042000AF0B00084C000020776966695F73656E4A
:10043000645F7461736B0000790800085254435F75
:100440007461736B0000000001760008704700BF04
:10045000FEE700BFFEE700BFFEE700BFFEE7704714
:1004600008B50121142001F08BF94FF40050ADF8CC
:10047000000010208DF8030003208DF8020069466B
:10048000044800F0E1FE4FF40051024800F089FFFB
:1004900008BD0000001001400EB50121084601F022
:1004A0007CF94FF6FF70ADF804004720ADF800006E
:1004B0000020ADF80600ADF8020069464FF080401C
:1004C00001F02DFA00214FF0804001F0AEFC0EBD8E
:1004D00010B5044600204FF0804188840121880730
:1004E00001F0A3FC00BF4FF08040808CA042FAD303
:1004F00000214FF0804001F098FC00204FF0804137
:10050000888410BD10B5044603E04FF47A70FFF7FD
:10051000DFFF201EA4F10104F7D110BD10B586B095
:100520000446012144F2050001F02AF94FF400705D
:10053000ADF8140003208DF8160018208DF8170070
:1005400005A9F64800F080FE4FF48060ADF8140075
:1005500004208DF8170005A9F04800F075FE25204D
:100560008DF8000008208DF8010000208DF80200B1
:1005700001208DF80300684602F007F9019400207D
:10058000ADF80800ADF80A00ADF80C00ADF81000A9
:100590000C20ADF80E0001A9E14801F082FF012115
:1005A000DF4801F0ECFF002240F22551DC4801F069
:1005B000F2FF012240F22441D94801F0ECFF06B0DD
:1005C00010BD2DE9F8430020009040F22441D448AA
:1005D00002F0A0F800284CD0D148008800F0FF08B5
:1005E000CF48001D008800F0FF08CE4802F00EFA48
:1005F000C0F5807085B2CC480088854204DBCA48CB
:100600000088281A84B205E0C7480088C0F58070C9
:10061000284484B2002C2BDDC34800882044B0F568
:10062000807F0ADCC148C04A128881186B46224686
:10063000BF48006803F042FC18E0BB480088C0F5E2
:10064000807086B2A01B87B2B848B74A128881185A
:100650006B463246B648006803F030FC6B463A46BB
:10066000B249B348006803F029FC00BFAE480580DA
:1006700000BF00BF009838B14FF08050AD4908600E
:10068000BFF34F8FBFF36F8F00BFBDE8F88310B586
:10069000024600200CE000BFA14B1B8803F0400382
:1006A000002BF9D0135C9E4C241D2380431C98B270
:1006B0008842F0DB10BD01B555209F4908704420E9
:1006C0004870012088709DF80000C87002200871F1
:1006D0009DF80100487100208871C87133200872AC
:1006E00022204872084608BD2DE9F043A1B0044617
:1006F0000D4604F022FD80461DE0642201A98F48CA
:10070000006802F0CBFF012815D1214601A807F0AF
:10071000B4F818B1012021B0BDE8F08388A101A888
:1007200007F0ABF820B988A101A807F0A6F810B12E
:100730004FF0FF30EFE704F000FDA0EB08094FF4A5
:100740007A70A5FB006001464FF47A7200233046B0
:1007500007F03EF88145D0D30020DCE70BE000BF76
:100760006F49098801F040010029F9D010F8011BF8
:100770006B4A121D118001780029F0D100BF684931
:10078000098801F040010029F9D00D21644A121DA9
:10079000118000BF6249098801F040010029F9D0A9
:1007A0000A215F4A121D1180704770B505462C461C
:1007B0000026032166A0FFF76AFF40F2DC5164A027
:1007C000FFF792FF01280CD04FF4FA7004F015F9EE
:1007D00003215FA0FFF75BFF40F2DC515CA0FFF755
:1007E00083FF4FF4FA7004F008F930E0C4B959A05F
:1007F000FFF7B4FF40F2DC5158A0FFF775FF58A097
:10080000FFF7ACFF40F2DC5154A0FFF76DFF5AA098
:10081000FFF7A4FF40F2DC5150A0FFF765FF641C16
:10082000012C08D157A0FFF799FF41F288314BA066
:10083000FFF75AFF641C022C08D15BA0FFF78EFF64
:1008400040F6B83145A0FFF74FFF641C761C032C1F
:1008500001D0032ECADB5EA0FFF780FF40F2DC511F
:100860003EA0FFF741FF5EA0FFF778FF40F2DC51AA
:100870005EA0FFF739FF70BD1CB50020FFF795FFA4
:100880001AE04FF0FF3001AB0022114600901046F5
:1008900005F0DCF801280CD1554800880090FFF7DE
:1008A0000AFF0A212448FFF7F2FE00205049087091
:1008B00048700A2004F0A1F8E3E7A6B00024002560
:1008C000E4E04FF0FF33012225A91948006803F046
:1008D0008CFB012800D0D9E0FDB99DF894000A28CE
:1008E0000BD154B1002005A9085500231A4613481E
:1008F000006802F061FC0024C8E07F2C05D29DF85E
:1009000094202046641C05A90A549DF8940055289B
:1009100002D18DF800000125B8E06BE0000801402D
:10092000003801405800024038000020C401002077
:100930002C00002004ED00E0C40200203000002064
:100940004552524F520000004641494C0000000001
:100950002B2B2B0041544530000000004F4B000072
:1009600041542B554152543D3131353230302C38C1
:100970002C312C302C31000041542B43574D4F4427
:10098000453D310041542B43574A41503D2254507C
:100990002D4C494E4B5F33333732222C22313233C8
:1009A000343536373822000041542B4349505354D4
:1009B0004152543D22544350222C223139322E319F
:1009C00036382E312E313033222C37373535000072
:1009D00041542B4349504D4F44453D3100000000E8
:1009E00041542B43495053454E4400003E00000003
:1009F00044000020012D2FD19DF89400442803D1FC
:100A00008DF80100022526E07F2C04D255222046D5
:100A1000641C05A90A5400259DF894000A280BD1EE
:100A200054B1002005A9085500231A4693480068D0
:100A300002F0C2FB00240EE07F2C0CD29DF8942023
:100A40002046641C05A90A549DF89400552802D13B
:100A50008DF80000012519E09DF8942028466D1CB2
:100A60000DF80020132D10D19DF8110033280AD164
:100A70009DF81200222806D100231A4669468048B4
:100A8000006802F099FB0025002400BF19E7014629
:100A900001F00F000A1102EB820200EB4200C0B22B
:100AA000704708B500200346024601210090480225
:100AB00003F081F87349086000228021082002F0C9
:100AC00092FA6E49086000221321042002F08BFA8A
:100AD0006B4908606B48006828B16848006810B12D
:100AE0000846006808B900BFFEE708BD2DE9F041DF
:100AF000A2B0054604F021FB064646E04FF4FA7228
:100B000002A95E48006802F0C9FD01283DD15EA13E
:100B100002A806F0B2FE04463CB3204606F0BFFE33
:100B2000082822DD207A01909DF80400332803D1A3
:100B3000032022B0BDE8F0819DF80400312803D0E5
:100B40009DF80400352801D10120F2E79DF804004A
:100B5000322803D09DF80400342801D10220E8E7B0
:100B6000012101A8FFF793FD00BFAFF22C2102A8DD
:100B700006F083FE28B9AFF2302102A806F07DFE10
:100B800010B14FF0FF30D4E700BF04F0D6FA841B59
:100B90004FF47A70A5FB007001464FF47A7200237F
:100BA000384606F015FE8442A8D30020C1E788B07D
:100BB00062E04FF0FF3203A93148006802F06EFD99
:100BC000012859D19DF80E00012840D19DF80F0051
:100BD00001283CD19DF81000FFF759FF00F5FA609D
:100BE0002C4988809DF81100FFF751FF2949887131
:100BF0009DF81200FFF74BFF2649C8719DF81300BE
:100C0000FFF745FF234908709DF81400FFF73FFFE9
:100C1000204948709DF81500FFF739FF1D4988707D
:100C20009DF81600FFF733FF1A49087201F0F9FF2B
:100C30001848807817494978164CCDE90010237878
:100C4000E279A179A08806F0EDFB01F0F3FF9DF8B1
:100C50001700022810D19DF8180001280CD19DF82A
:100C600019000D4908709DF81A0048709DF81B0086
:100C700088709DF81C0008719BE700003000002080
:100C8000340000202C000020535441545555533A51
:100C900000000000783F00204600002010B5FE4A0A
:100CA0001268082A15DAFC4A1268521CFA4B1A60BC
:100CB000FA4A1B6842F833000022F84BF64C2468CD
:100CC00003EBC4031A71F54AF34B1B6802EBC30232
:100CD000517110BDF0480068002804DBEE48006840
:100CE000401EED4908607047EB480068002805DBAE
:100CF000EA48E949096800EBC10070470020FCE7B9
:100D00002DE9F04F89B0FFF7EFFF044614B909B0A1
:100D1000BDE8F08F05F004FF217901EB8101206827
:100D200000EB81008068DE49884208D1DD48082355
:100D3000602200210090202006F07CF976E02179E5
:100D400001EB8101206800EB81008068D649884270
:100D500008D1D6480823602200210090202006F008
:100D600069F963E0217901EB8101206800EB8100E2
:100D70008068CF49884208D1CE48072360220021ED
:100D80000090202006F056F950E094F8058094F881
:100D900004904FF0030ACB460BEB0A00404501DDFF
:100DA000A8EB0A0BBBF1000F01DA4FF0000B002596
:100DB00039E00BEB0507474534DA002625E04F45BF
:100DC00001D13E2000E020200246BBA101A806F090
:100DD000E1FD05EBC5004006010E0C2301AA002031
:100DE00006F01CF807EB870C236803EB8C031B69E8
:100DF00053F8262005EBC5035B06190EC6EB061358
:100E00001833D8B206F070F8761C042E09DA07EB16
:100E10008701206800EB8100006950F82600002857
:100E2000CDD100BF6D1C5545C3DB00BF05F055FE9D
:100E300000BF6CE710B596B04FF0FF3096490860E0
:100E400005F06EFE9D488088642190FBF1F201FB65
:100E500012049A48C079009098488379224698A154
:100E60000EA806F097FD9548807800909348437847
:100E7000027897A106A806F08DFD99488078009029
:100E800097484378027997A102A806F083FD0C23C6
:100E90000EAA0021084605F0C1FF0C2306AA112165
:100EA000002005F0BBFF924A2121002006F01CF82B
:100EB0008248007A8F4951F8202021210F2006F026
:100EC00013F88D4A3021002006F00EF88A4A1832B5
:100ED00030210F2006F008F8874A303230211E20DA
:100EE00006F002F8844A483230212D2005F0FCFF3C
:100EF0000C2302AA30213C2005F090FF78480078AE
:100F00007E4951F8200005237822002100905020CE
:100F100006F090F805F0E1FD16B010BD70B505467D
:100F2000FFF7E2FE044604B970BD052D4ED2DFE89E
:100F300005F04C030E1A43002079002803DD2079C8
:100F4000401E207102E06079401E20713EE0217950
:100F50006079401E814203DA2079401C207101E053
:100F60000020207132E0217901EB8101206800EB43
:100F70008100406838B1227902EB8202216801EBDE
:100F8000820148688047217901EB8101206800EBEC
:100F90008100806878B1237903EB8303226802EB38
:100FA0008302117B237903EB8303226802EB830224
:100FB0009068FFF773FE09E0FFF78CFE3648006883
:100FC000401C08B9FFF736FF00E000BF00BF00BFBC
:100FD000AAE708B50FE006F09FFB00909DF800001F
:100FE00030B100231A4669464548006802F0E4F82B
:100FF000142003F002FDEEE708B5FFF71BFF21E028
:101000004FF47A7269463E48006802F047FB0128B7
:1010100011D121480068401C30B903213948FFF73D
:101020003DFEFFF76DFE0DE09DF80000FFF776FF37
:10103000FFF766FE05E018480068401C08B9FFF796
:10104000F9FE00BFDCE710B5FFF7F4FE10BD10B5E8
:10105000FFF7F0FE10BD10B5FFF7ECFE10BD10B5A8
:10106000FFF7E8FE10BD10B5FFF7E4FE10BD10B5A8
:10107000FFF7E0FE10BD08B50120234908700020ED
:1010800003230122014600902048006804F041FD3E
:10109000FFF7D0FE08BD000040000020280300201C
:1010A0005C870008E87E0008D0860008E880000819
:1010B00098870008287D000825632000783F0020DD
:1010C000253032642D253032642D25303264000005
:1010D000253032643A253032643A253032640000DB
:1010E0004600002025642C25642D256400000000A6
:1010F00020A0000800010020C09F00081C01002063
:101100003C000020AC870008440000204C00002078
:1011100008B501201649487000200323012201462A
:1011200000901448006804F0F4FCFFF783FE08BD4B
:1011300008B502200E494870002003230222014610
:1011400000900C48006804F0E4FCFFF773FE08BD53
:1011500008B5032006494870002003231A460146BB
:1011600000900448006804F0D4FCFFF763FE08BD5B
:10117000440000204C00002010B50446C649601A07
:101180008C422FD009DCC548204480B1B0F5806F77
:1011900016D0B0F5006F4AD11BE0B0F5806F2AD0B1
:1011A000B0F5006F30D0B0F5406F40D135E001218F
:1011B000042000F0FFFA0021042000F0FBFA37E0E1
:1011C0000121082000F0F6FA0021082000F0F2FAD0
:1011D0002EE00121102000F0EDFA0021102000F097
:1011E000E9FA25E00121202000F0E4FA0021202086
:1011F00000F0E0FA1CE00121402000F0DBFA0021C1
:10120000402000F0D7FA13E00121802000F0D2FA4C
:101210000021802000F0CEFA0AE00121080200F04F
:10122000C9FA00214FF4807000F0C4FA00E000BF5A
:1012300000BF10BD10B50121084600F0BBFA002127
:10124000012000F0B7FA10BD2DE9F041024600255B
:101250000026002000230024002791F803C00CF092
:101260000F0591F803C00CF0100CBCF1000F03D077
:1012700091F802C04CEA050591F800C0BCF1000FDE
:1012800031D0146800202BE04FF0010C0CFA00F371
:10129000B1F800C00CEA03069E4220D183004FF053
:1012A0000F0C0CFA03F7BC4305FA03FC4CEA0404E8
:1012B00091F803C0BCF1280F06D14FF0010C0CFAD5
:1012C00000FCC2F814C00AE091F803C0BCF1480F5A
:1012D00005D14FF0010C0CFA00FCC2F810C0401C04
:1012E0000828D1D31460B1F800C0BCF1FF0F34DD81
:1012F000546800202EE000F1080C4FF0010808FAB5
:101300000CF3B1F800C00CEA03069E4221D1830021
:101310004FF00F0C0CFA03F7BC4305FA03FC4CEA40
:10132000040491F803C0BCF1280F05D100F1080CAA
:1013300008FA0CF8C2F8148091F803C0BCF1480F09
:1013400007D100F1080C4FF0010808FA0CF8C2F8B8
:101350001080401C0828CED35460BDE8F0814FF6C1
:10136000FF710180022181700421C1707047024623
:10137000002093680B400BB1012000E00020704773
:101380000146886880B2704702460020D3680B404F
:101390000BB1012000E0002070470146C86880B210
:1013A000704701617047416170470AB1016100E017
:1013B00041617047C16070474FF480320A438261D7
:1013C0008161826182698269704702460020344BE4
:1013D00018684FF68073184040EA02100843304BFB
:1013E000186070472F49C8617047F0B50A4600235E
:1013F0000024002100252A4E7168C0F3034583B202
:1014000000F44016B6F5401F08D121F07061244E5B
:10141000766826F07066224F7E6012E000F4801637
:10142000B6F5801F06D1032606FA05F4A14341F064
:10143000706106E0460D360103FA06F6B14341F04D
:10144000706122B1460D360103FA06F63143144E9F
:101450007160F0BD30B500228B071C0F0F2303FA1B
:1014600004F20F4B08338C1053F8243093430C4C88
:1014700008348D1044F8253023468C1053F824305E
:101480008C07240F00FA04F42343054C08348D1014
:1014900044F8253030BD00000014014000F8FEBFC4
:1014A0000000014000002042DE48006840F00100DA
:1014B000DC49086008464068DB490840D949486073
:1014C00008460068D9490840D649086008460068BF
:1014D00020F4802008600846406820F4FE00486040
:1014E000002088607047CF49096821F48031CD4AD7
:1014F00011601146096821F480211160B0F5803F28
:1015000003D0B0F5802F0ED106E0C649096841F43A
:101510008031C44A116007E0C249096841F4A02142
:10152000C04A116000E000BF00BF704710B501461F
:101530000022002300204A11012A02D1B94C23685D
:1015400006E0022A02D1B74C236A01E0B54C636A77
:1015500001F01F02012494401C400CB1012000E066
:10156000002010BD38B5002000900024002500BFE9
:101570003120FFF7DBFF05460098401C00901DB9A5
:101580000098B0F5A06FF3D13120FFF7CFFF08B17D
:10159000012400E00024204638BD01460020A14A75
:1015A000106820F0F80040EAC10010607047A049C0
:1015B00008607047024600209A4B586820F47C105F
:1015C00042EA01031843974B5860704798490866F0
:1015D000704701460020934A506820F003000843FA
:1015E000506070478F48406800F00C00704701461B
:1015F00000208C4A506820F0F0000843506070478B
:1016000001460020874A506820F4E060084350609B
:10161000704701460020834A506820F4605040EA39
:10162000C1005060704729B17E4A527A02437D4B17
:101630005A7204E07B4A527A82437A4B5A7270475C
:101640007B49D8310860704701460020754A5068D0
:1016500020F440400843506070470021714A203216
:101660001170704A82F82010012802D004280AD193
:1016700004E001216B4A2032117005E00521694A1E
:101680002032117000E000BF00BF70476949086058
:1016900070476449096A0143624A116270476549AB
:1016A00044390860704730B500210022002400232F
:1016B0005C4D6D6805F00C0121B1042905D00829A5
:1016C00023D105E05C4D056022E05B4D05601FE025
:1016D000544D6D6805F47012022505EB9242514D90
:1016E0006D6805F480341CB9544D554305600BE01A
:1016F0004C4D6D6805F400351DB1504D55430560E6
:1017000002E04D4D5543056002E04B4D056000BFC2
:1017100000BF444D6D6805F0F0010909484D6B5C50
:101720000568DD4045603F4D6D6805F4E061090ADC
:10173000434D6B5C4568DD4085603A4D6D6805F44E
:101740006051C90A3E4D6B5C4568DD40C560354D52
:101750006D6805F44041890B3A4D6B5CC568B5FB7B
:10176000F3F5056130BD29B12E4A526902432D4B74
:101770005A6104E02B4A526982432A4B5A617047EE
:1017800029B1284A92690243264B9A6104E0254A0E
:1017900092698243234B9A61704729B1214AD269E9
:1017A0000243204BDA6104E01E4AD26982431D4B9A
:1017B000DA61704729B11B4AD2680243194BDA60DB
:1017C00004E0184AD2688243164BDA60704729B1A8
:1017D000144A12690243134B1A6104E0114A126958
:1017E0008243104B1A6170471249403908607047B4
:1017F0000F49C86470470B49C87170470948406A6F
:1018000040F0807007494862704701460020054A51
:1018100092680A400AB1012000E0002070470149A7
:1018200088727047001002400000FFF8FFFFF6FECC
:10183000000042428004424200127A0000093D004A
:10184000340100204401002010B50446F749601A15
:101850008C4245D00CDCB4F1804F1DD0F4482044BC
:1018600018B3B0F5806F29D0B0F5006F54D12EE0D9
:10187000B0F5806F3DD0B0F58E3F03D0B0F5923F0C
:101880004AD13FE00121C802FFF794FF00214FF445
:101890000060FFF78FFF40E001210846FFF797FF48
:1018A00000210120FFF793FF37E001210220FFF71D
:1018B0008EFF00210220FFF78AFF2EE00121042085
:1018C000FFF785FF00210420FFF781FF25E00121BC
:1018D0000820FFF77CFF00210820FFF778FF1CE0BD
:1018E00001211020FFF773FF00211020FFF76FFF89
:1018F00013E001212020FFF76AFF00212020FFF7DD
:1019000066FF0AE001214803FFF754FF00214FF46E
:101910000050FFF74FFF00E000BF00BF10BD02887E
:1019200002F08F020280CA884B881A4303881A4348
:1019300002808A8882850A880285BE4A904202D047
:10194000BD4A904201D10A7A028601228282704702
:1019500070B5002400220023058C4FF6FE7635403A
:101960000584028C8388048B4FF68F752C400D887C
:101970002C43751E2A400D892A434D882A43CD8861
:101980008586AC4DA84202D0AB4DA84213D14FF68C
:10199000F7752A404D892A434FF6FB752A408D88FA
:1019A0002A4347F6FF652B4047F6FF552B408D89AC
:1019B0002B43CD892B4383800483028470BD70B593
:1019C000002400220023058C4FF6EF763540058475
:1019D000028C8388048B48F6FF752C400D884FF6E7
:1019E000FF7606EA05252C434FF6DF752A400D8960
:1019F00006EA05152A434D8806EA05152A43CD88CF
:101A000005878C4DA84202D08B4DA8421DD14FF6C0
:101A10007F752A404D894FF6FF7606EA05152A4361
:101A20004FF6BF752A408D8806EA05152A4347F60A
:101A3000FF352B4047F2FF752B408D8906EA85055F
:101A40002B43CD8906EA85052B43838004830284DA
:101A500070BD70B5002400220023058C4FF6FF6690
:101A600035400584028C8388848B4FF68F752C401B
:101A70000D882C434FF6FF552A400D894FF6FF760F
:101A800006EA05252A434D8806EA05252A43CD881E
:101A90008587684DA84202D0674DA8421DD14FF2FC
:101AA000FF752A404D894FF6FF7606EA05252A4341
:101AB0004FF6FF352A408D8806EA05252A4346F66B
:101AC000FF752B4045F6FF752B408D8906EA0515FD
:101AD0002B43CD8906EA05152B438380848302843A
:101AE00070BD70B5002400220023058C4EF6FF76F1
:101AF00035400584028C8388848B48F6FF752C4022
:101B00000D884FF6FF7606EA05252C434DF6FF7546
:101B10002A400D8906EA05352A434D8806EA05352F
:101B20002A43CD88A0F84050424DA84202D0424DF1
:101B3000A84207D1C3F30D038D894FF6FF7606EA5D
:101B400085152B4383808483028470BD828B4FF282
:101B5000FF331A408283828B4FF6FF7303EA01231F
:101B60001A4382837047F0B50C46154600210022C7
:101B70000026078C4EF6FF7C07EA0C070784818B52
:101B8000028C4FF6FF7707EA043640F6FF473940EC
:101B90004FF6FF7707EA05274FF6FF7C0CEA033C78
:101BA00047EA0C0739434DF6FF773A4046F4805731
:101BB0003A4381830284F0BD828B4FF6F3731A405F
:101BC0008283828B0A4382837047F0B50C461546A8
:101BD000002100220026078C4FF6FF6C07EA0C0755
:101BE0000784818B028C4FF6FF7707EA04264FF6B5
:101BF0000C7739404FF6FF7707EA03172F43394335
:101C00004FF6FF573A4046F480773A438183028487
:101C1000F0BD028B4FF2FF331A400283028B4FF666
:101C2000FF7303EA01231A43028370470010004048
:101C300000FCFFBF002C014000340140F0B50C4611
:101C40001546002100220026078C4FF6EF7C07EA9C
:101C50000C070784018B028C4FF6FF7707EA041606
:101C600040F6FF4739404FF6FF7707EA033739431D
:101C70004FF6FF7707EA052739434FF6DF773A40FB
:101C800046F010073A4301830284F0BD028B4FF601
:101C9000F3731A400283028B0A4302837047F0B544
:101CA0000C46154600210022068C4FF6FE773E407A
:101CB0000684018B028C4FF60C7631407E1C06EABE
:101CC00003162E4331437E1E324044F00106324358
:101CD00001830284F0BD70B505460C46208850B9DA
:101CE0002389A28861882846FFF7D9FFE188284622
:101CF000FFF7CCFF25E0208804280AD12389A28899
:101D000061882846FFF79AFFE1882846FFF781FFA0
:101D100017E0208808280AD12389A28861882846EC
:101D2000FFF753FFE1882846FFF746FF09E02389C4
:101D3000A28861882846FFF716FFE1882846FFF74A
:101D400005FF70BD2DE9F04105460C460026012730
:101D5000608808B9022600E00026A088012801D189
:101D6000022700E001272088A0B92389A288618882
:101D70002846FFF794FFE1882846FFF787FF23896D
:101D80003A4631462846FFF759FFE1882846FFF7D3
:101D900040FF13E02389A28861882846FFF74EFFA1
:101DA000E1882846FFF735FF23893A463146284621
:101DB000FFF775FFE1882846FFF768FFBDE8F0816F
:101DC0000A884B881A438B881A43CB881A430B899D
:101DD0001A434B891A438B891A43A0F84420704751
:101DE0004FF6FF71818000210180C1804180017226
:101DF00070470021018041808180C1800181418143
:101E00008181C18170470021018041800121818051
:101E10000021C180018170470021018041808180C3
:101E2000C180018141818181704721B1028842F0E6
:101E30000102028004E0028840F2FE331A40028070
:101E4000704731B1B0F8442042F40042A0F8442079
:101E500005E0B0F84420C2F30E02A0F84420704719
:101E60001AB183890B43838102E083898B43838189
:101E700070478182704741EA0203A0F848307047FA
:101E80001AB183890B43838102E083898B43838169
:101E9000704701894FF6F8721140018170470A4678
:101EA000002101894FF68F7319401143018170475A
:101EB00030B504460D4629462046FFF7F0FF20893D
:101EC00040F00700208130BD2DE9F04104460D4669
:101ED00016461F46602D06D13B460122314620465C
:101EE000FFF7ACFE05E03B46012231462046FFF7F6
:101EF000D6FE29462046FFF7D2FF208940F0070092
:101F00002081BDE8F08170B50C4600210189C9B27D
:101F100044EA02054FF6FF7606EA032635432943D5
:101F2000018170BD2DE9F04105460E4617469846E1
:101F3000002443463A4631462846FFF7E4FF2C8901
:101F40004FF6F870044044F007044FF68F700440D9
:101F500044F070042C81BDE8F081F0B504460D46D4
:101F600016461F463B46324629462046FFF7CBFF22
:101F7000208940F480402081F0BD01858282704735
:101F80000A460021018840F28F3319401143018035
:101F90007047F0B50C4615461E460021002200236E
:101FA0000189028B038C4FF6F877394021434FF6B5
:101FB000FC473A4040F201173A434FF6DD773B4089
:101FC0004FF6FF7707EA06172F433B430181028351
:101FD0000384F0BD0A460021018B4FF68F73194030
:101FE0001143018370470A460021018B48F6FF73B5
:101FF00019404FF6FF7303EA022319430183704728
:102000000A460021818B4FF68F731940114381835B
:1020100070470A460021818B48F6FF7319404FF63E
:10202000FF7303EA022319438183704721B10288B9
:1020300042F08002028004E0028840F27F331A40BE
:102040000280704721B1828842F00402828004E05D
:1020500082884FF6FB731A408280704721B18288D4
:1020600042F00802828004E082884FF6F7731A403B
:102070008280704721B1828842F00102828004E0B0
:1020800082884FF6FE731A40828070470A4600210C
:10209000018B4FF6F77319401143018370470A46CD
:1020A0000021018B4FF2FF7319404FF6FF7303EAD3
:1020B00002231943018370470A460021818B4FF6A2
:1020C000F77319401143818370470A460021818BC1
:1020D0004FF2FF7319404FF6FF7303EA02231943CF
:1020E000818370470A460021018B4FF6FB7319402C
:1020F0001143018370470A460021018B4FF6FF33DD
:1021000019404FF6FF7303EA022319430183704716
:102110000A460021818B4FF6FB73194011438183DE
:1021200070470A460021818B4FF6FF3319404FF666
:10213000FF7303EA02231943818370470A46002193
:10214000018B4FF67F7319401143018370470A4694
:102150000021018BC1F30E014FF6FF7303EA022346
:102160001943018370470A460021818B4FF67F7324
:1021700019401143818370470A460021818BC1F3C6
:102180000E014FF6FF7303EA022319438183704760
:102190000A460021018C4FF6FD731940114301845A
:1021A00070470A460021018C4FF6F773194011431E
:1021B000018470470A460021018C4FF6DF731940F5
:1021C0004FF6FF7303EA02131943018470470A466E
:1021D0000021018C4FF67F7319404FF6FF7303EA1D
:1021E00002131943018470470A460021018C4FF6FF
:1021F000FF5319404FF6FF7303EA0223194301848A
:1022000070470A460021018C4FF2FF7319404FF6C8
:10221000FF7303EA02231943018470470A46002131
:10222000018C4DF6FF7319404FF6FF7303EA02333A
:1022300019430184704710B5038C01248C40A343DB
:102240000384038C02FA01F4A4B22343038410BD77
:1022500010B5038C04248C40A3430384038C02FA3E
:1022600001F4A4B22343038410BD30B5038C0124D0
:102270008C40A343038409B1082918D100F1180345
:1022800003EB61031B684FF68F74234000F11804C1
:1022900004EB6104236000F1180303EB61031B6886
:1022A000134300F1180404EB610423601FE00B1FCB
:1022B000C3F34E0400F118031B5948F6FF74234082
:1022C0000C1FC4F34E0500F1180463510B1FC3F338
:1022D0004E0400F118031B594FF6FF7404EA022460
:1022E00023430C1FC4F34E0500F11804635130BDA5
:1022F00021B1028842F00202028004E0028840F22A
:10230000FD331A400280704721B1028842F0040276
:10231000028004E0028840F2FB331A4002807047DA
:1023200021B1828842F08002828004E082884FF6E8
:102330007F731A4082807047028840F2F7331A4058
:10234000028002880A430280704782884FF68F73AA
:102350001A40828082880A438280704702894FF641
:10236000F8731A40028102890A4302817047028988
:102370004FF67F731A40028102890A430281704737
:1023800081847047818570478186704701877047D7
:1023900081877047A0F8401070470288D2B202804F
:1023A00002880A43028070470146888E70470146C2
:1023B000088F70470146888F70470146B1F840008A
:1023C00070470146888C70470146088D7047024669
:1023D0000020138A0B400BB1012000E00020704761
:1023E000CA430282704730B5024600200023002411
:1023F000158A05EA0103958905EA010413B10CB1B8
:10240000012000E0002030BDCA4302827047000076
:1024100010B50446D749601A8C422BD006DCD6484A
:10242000204498B1B0F5806F38D119E0B0F5806FD5
:102430002AD0B0F56C4F31D101218803FFF7BAF9EA
:1024400000214FF48040FFF7B5F928E0012148044E
:10245000FFF7BDF900214FF40030FFF7B8F91EE097
:1024600001218804FFF7B3F900214FF48020FFF722
:10247000AEF914E00121C804FFF7A9F900214FF4D7
:102480000020FFF7A4F90AE001210805FFF79FF9F2
:1024900000214FF48010FFF79AF900E000BF00BF61
:1024A00010BD2DE9F04786B005460E460024A24631
:1024B00000BF00BF00272F462C8A4CF6FF70044057
:1024C000F08804432C82AC894EF6F3100440B088A7
:1024D00031890843718908430443AC81AC8A4FF6C3
:1024E000FF400440B0890443AC8201A8FFF7DBF849
:1024F000A248874202D1DDF810A001E0DDF80CA06F
:102500000AEBCA0000EB0A1031688900B0FBF1F851
:102510006420B8FBF0F004012009642101FB10895C
:10252000322000EB0910B0FBF1F000F00F00044383
:102530002C8106B0BDE8F0874FF4165101600021F0
:102540008180C18001810C214181002181817047FE
:1025500010B502460020108A4FF2FF0318400B8886
:102560004C8823438C882343CC8823431843108210
:1025700010BD0021018041808180C180704721B160
:10258000828942F40052828104E082894DF6FF7311
:102590001A4082817047F0B50346002400260025CA
:1025A00000201846C1F3421401F01F06012707FA64
:1025B00006F5012C01D10C3004E0022C01D11030C1
:1025C00000E014301AB107682F43076002E0076883
:1025D000AF430760F0BD1AB1838A0B43838202E0E8
:1025E000838A8B4383827047028A4FF6F0731A40C6
:1025F0000282028A0A430282704782894FF2FF7385
:102600001A40828182890A438281704721B182897E
:1026100042F00202828104E082894FF6FD731A4083
:1026200082817047028A4FF6DF731A400282028A63
:102630000A430282704721B1028A42F48042028238
:1026400004E0028A4BF6FF731A4002827047C1F31E
:1026500008028280704701468888C0F308007047EE
:10266000818941F0010181817047028BD2B20283DE
:10267000028B42EA012202837047028B02F47F42FE
:102680000283028B0A430283704721B1828A42F09F
:102690002002828204E0828A4FF6DF731A4082822F
:1026A000704721B1828A42F01002828204E0828A5D
:1026B0004FF6EF731A408282704721B1828A42F04E
:1026C0000802828204E0828A4FF6F7731A408282FF
:1026D0007047828A4FF6FB731A408282828A0A43CD
:1026E0008282704721B1828A42F00202828204E033
:1026F000828A4FF6FD731A4082827047024600209C
:1027000013880B400BB1012000E000207047CA4342
:102710000280704770B502460B4600240021002558
:102720000020C3F3421503F01F01012606FA01F150
:10273000012D02D19689314006E0022D02D1168A80
:10274000314001E0968A31401C12012606FA04F459
:102750001688344011B10CB1012000E0002070BD9A
:1027600010B5002200230A1201249440A3B2DC43D6
:10277000048010BD004C004000BCFFBF0038014089
:1027800031490143314A1160704770B5002100237F
:102790000F22C47804B32D4C246804F4E064C4F51B
:1027A000E064210AC1F10403CA40447804FA03F149
:1027B0008478144021430901254C0678A1550478FA
:1027C00004F01F050124AC4005786D11AD0005F142
:1027D000E025C5F8004109E0047804F01F05012454
:1027E000AC401C4D0678761145F8264070BD1A4A5B
:1027F0000A400243154B1B1F1A60704739B1134A38
:10280000121D12680243114B1B1D1A6006E00F4A8D
:10281000121D126882430D4B1B1D1A60704704285D
:1028200008D14FF0E021096941F004014FF0E022A6
:10283000116107E04FF0E021096921F004014FF038
:10284000E0221161704700000000FA050CED00E085
:1028500000E400E080E100E080FFFF1F016821F05C
:10286000010101600021016041608160C160874A0F
:10287000811A90425BD012DC854AA0EB02019042A3
:102880003AD007DC83490144D9B1142922D0282940
:102890007AD128E0142938D0282975D13EE0B1F545
:1028A0006C7F5BD006DCB1F5627F49D0B1F5677F04
:1028B0006AD14CE0B1F5717F57D0B1F5767F63D125
:1028C0005BE073494439496841F00F01704A443A6A
:1028D00051605AE06E494439496841F0F0016C4A50
:1028E000443A516051E06A494439496841F47061A1
:1028F000674A443A516048E065494439496841F4BF
:102900007041634A443A51603FE061494439496843
:1029100041F470215E4A443A516036E05C494439E2
:10292000496841F470015A4A443A51602DE05849CF
:102930004439496841F07061554A443A516024E095
:102940005549096841F00F01534A11601DE0524991
:10295000096841F0F001504A116016E04E490968DB
:1029600041F470614C4A11600FE04B49096841F431
:102970007041494A116008E006E04749096841F49E
:102980007021454A116000E000BF00BF704710B5DC
:102990000022026847F6F0739A430C6A8B6823435F
:1029A0000C6923434C6923438C692343CC6923433B
:1029B0004C6A23438C6A23431A430260CB6843600A
:1029C0000B6883604B68C36010BD002101604160EB
:1029D0008160C160016141618161C16101624162E7
:1029E0008162704721B1026842F00102026003E097
:1029F000026822F00102026070471AB103680B43BB
:102A0000036002E003688B43036070470146486837
:102A100080B2704701460020002201F080531BB1B4
:102A20001D4B1B1F1A6802E0194B443B1A6802EA4F
:102A300001030BB1012000E00020704700F080513D
:102A400011B11549086002E01149443948607047E6
:102A500001460020002201F080531BB10E4B1B1FCA
:102A60001A6802E00A4B443B1A6802EA01030BB100
:102A7000012000E00020704700F0805111B10649AC
:102A8000086002E002494439486070478000024013
:102A900044000240F8FFFDBF0404024010B50120CD
:102AA000FEF7A2FE0020FEF79FFE10BD234908603E
:102AB00070472249091F0860704720498431086027
:102AC0007047014600201E4A10884FF67F42104092
:102AD00008431B4A1080704701460020184A10889E
:102AE0004FF6807210400843154A10807047154A0F
:102AF0000244A2F8001C7047014612480844B0F88E
:102B0000000C70470D489C300068C0B270470C48FC
:102B10000830008840F001000949083108807047FA
:102B20000648A0300068C0B27047054808300088E9
:102B300040F00200024908310880704704860D42C7
:102B40002C6C00400060004010B501210807FEF722
:102B50003EFE00214FF08050FEF739FE10BD2749A0
:102B60000862704725490861704701460020244AE1
:102B7000106820F0E0000843106070471F49A03142
:102B80000860704710B5024600201D4B186820F001
:102B90000300104318601B4B1B6843F00403194CDF
:102BA0002360012901D130BF00E020BF10BD1448CF
:102BB000006840F00400124908600846006840F0D0
:102BC000020008600F48006840F004000D490860EA
:102BD00000BF00BF30BF704701460020084A52685E
:102BE0000A400AB1012000E000207047044909684A
:102BF00041EA8001024A11607047000000000E4265
:102C00000070004010ED00E029B1504A12880243E4
:102C10004E4B1A8004E04D4A128882434B4B1A8077
:102C200070474A48001D008840F010004749091DC0
:102C3000088070474548001D00884FF6EF71084036
:102C40004249091D08807047002140481C30018816
:102C5000001F008841EA0040704700B50246FFF7B8
:102C6000E0FF100C394918310880091D0A80FFF770
:102C7000E1FF00BD00B50246FFF7D3FFC2F30340FA
:102C8000324908310880091D0A80FFF7D3FF00BDD3
:102C900000B50246FFF7C5FF100C2C492031088013
:102CA000091D0A80FFF7C6FF00BD0020274910312B
:102CB00009880907080B254914310988084370471A
:102CC00000BF2248001D008800F020000028F8D036
:102CD00070471E48001D00884FF6F77108401B49D9
:102CE000091D088000BF1948001D008800F0080079
:102CF0000028F8D0704701460020144A121D12889F
:102D00000A400AB1012000E0002070470F49091D68
:102D1000098881430D4A121D118070470146002029
:102D20000A4A121D12880A40D0B2084A12880A4084
:102D300012B108B1012000E0002070470349091DCD
:102D400009888143014A121D118070470028004004
:102D50000CB50020019000904748006840F4803096
:102D60004549086000BF4448006800F40030009006
:102D70000198401C0190009818B90198B0F5A06F17
:102D8000F1D13D48006800F4003010B101200090FE
:102D900001E0002000900098012844D137480068E5
:102DA00040F01000354908600846006820F0030034
:102DB00008600846006840F0020008602E4840683D
:102DC0002D4948600846406848600846406840F41D
:102DD000806048600846406820F47C1048600846DF
:102DE000406840F4E81048600846006840F0807091
:102DF000086000BF2048006800F000700028F9D08B
:102E00001D48406820F003001B49486008464068A0
:102E100040F00200486000BF1748406800F00C0016
:102E20000828F9D101E000BFFEE70CBD10B5FFF79F
:102E30008FFF10BD10B51048006840F001000E492A
:102E40000860084640680E4908400B49486008463B
:102E500000680C490840084908600846006820F4EA
:102E6000802008600846406820F4FE00486000208A
:102E70008860FFF7DBFF10BD001002400020024019
:102E80000000FFF8FFFFF6FE00F1080141604FF07F
:102E9000FF31816000F10801C16001610021016022
:102EA000704700210161704742684A6093688B60F7
:102EB000936859609160086103685B1C0360704708
:102EC00010B502460B685C1C0CB9106907E002F1F2
:102ED000080000E04068446824689C42FAD94468CD
:102EE0004C604C68A160886041600A611468641C91
:102EF000146010BD01460A69D1E901309860D1E93A
:102F0000010358605068884201D1886850600020F1
:102F100008611068401E1060106870472DE9F0418C
:102F200005460E4601272C46002C41D0E06B0028B8
:102F30003ED0B91EE06BB1FBF0F0216C884237D374
:102F400003F0E4FCD4E90F12206801FB0200A0604A
:102F50000020A06320686060E06B401E226C216846
:102F600000FB0211E160FF2084F8440084F8450072
:102F70009EB9206908B9012000E00020A8B904F139
:102F8000100002F057FA80B14FF08050F749086006
:102F9000BFF34F8FBFF36F8F07E004F11000FFF70F
:102FA00073FF04F12400FFF76FFF03F0BEFC00E0A5
:102FB00000273846BDE8F0812DE9F04106460D4670
:102FC00017469846069C0DB9246000E02760E6632A
:102FD000256401212046FFF7A1FF84F850800020DE
:102FE000A064BDE8F0812DE9F84304460E4617467B
:102FF0000025DCB1681EB0FBF4F0B04216D304FB30
:1030000006F010F1550F11D804FB06F909F1540030
:1030100003F00AFB05464DB1A84608F154083B46AB
:103020004246314620460095FFF7C6FF2846BDE8D8
:10303000F8832DE9F04104460F4615464FF000088D
:10304000A66B206C48B9206800282CD1A06802F03B
:10305000C7FB80460020A06025E07DB93946226C80
:10306000606804F0E6FB216C606808446060D4E9A5
:103070000101884217D32068606014E03946226C51
:10308000E06804F0D6FB216CE068411AE160216839
:10309000E068884203D2216CA068411AE160022DE9
:1030A00001D106B1761E701CA0634046BDE8F081D8
:1030B000F1B50098846C0026A06BE16B884222D2A7
:1030C00094F94550002269462046FFF7B2FF0646B4
:1030D000681C60B9606A08B9012000E0002088B966
:1030E00004F1240002F0A6F960B101260AE000BF55
:1030F00002F02AF80746BD4203D2681C40B284F8A9
:10310000450000BF00BF3046F8BD70B5044603F06F
:10311000FDFB94F9455019E0A06C30B12046FFF753
:10312000C7FF88B102F0ADFA0EE0606A08B901206D
:1031300000E0002038B904F1240002F07BF918B156
:1031400002F09FFA00E003E0681E45B2002DE3DCC8
:1031500000BFFF2084F8450003F0E7FB03F0D6FB37
:1031600094F9445010E0206908B9012000E00020E3
:1031700048B904F1100002F05DF908B102F081FADB
:10318000681E45B200E001E0002DECDC00BFFF202E
:1031900084F8440003F0C9FB70BD70B5054603F028
:1031A000B5FBA86BE96B884201D1012400E0002443
:1031B00003F0BBFB204670BD2DE9FF4782B00746F8
:1031C00088461D464FF000093C4600BF03F09EFBB9
:1031D000A06BE16B884201D3022D3ED1D4F838A018
:1031E0002A4641462046FFF724FF0646A06C88B1D8
:1031F000022D02D1BAF1000F29D12046FFF758FF66
:1032000028B34FF0805059490860BFF34F8FBFF388
:103210006F8F1CE0606A08B9012000E0002068B9E7
:1032200004F1240002F006F988B14FF080504F49B4
:103230000860BFF34F8FBFF36F8F08E03EB14FF0D0
:1032400080504A490860BFF34F8FBFF36F8F03F080
:103250006CFB012006B0BDE8F087049818B903F0B4
:1032600064FB0020F6E7B9F1000F04D1684602F0D4
:10327000D5F94FF0010903F058FB01F082FB03F090
:1032800045FB94F94400401C10B9002084F8440028
:1032900094F94500401C10B9002084F8450003F063
:1032A00044FB04A9684602F0C0F9F8B92046FFF7CC
:1032B00074FFA8B104F11000049902F03BF8204615
:1032C000FFF723FF01F02FFA00287FF47FAF4FF0C4
:1032D000805026490860BFF34F8FBFF36F8F75E7AB
:1032E0002046FFF712FF01F01EFA6FE72046FFF7B6
:1032F0000CFF01F018FA0020ACE710B5044654B1F9
:103300000020A06020600021E16000231A461946D9
:103310002046FFF751FF10BD2DE9F041044601267C
:103320000027224600210120FFF75DFE05462846C2
:10333000FFF7E3FF2846BDE8F08170B505462C464F
:1033400002F0BFF9A16888420CD1E068401EE0603D
:10335000E06828B900231A4619462046FFF72CFFDB
:10336000012600E00026304670BD000004ED00E0BC
:1033700001464A6A22B10A6B1268C2F1200000E0DD
:103380000020704770B5054603F0C0FAA86B08B975
:10339000012400E0002403F0C8FA204670BD2DE9A6
:1033A000F34182B0054600272C46B84600BF03F023
:1033B000ADFAA66BFEB1701EA063206810B902F0D2
:1033C000ECFAA060206908B9012000E0002060B993
:1033D00004F1100002F02EF838B14FF08050FC4993
:1033E0000860BFF34F8FBFF36F8F03F09EFA012089
:1033F00004B0BDE8F081039818B903F096FA0020F4
:10340000F6E71FB9684602F009F9012703F08DFAC3
:1034100001F0B7FA03F07AFA94F94400401C10B9AD
:10342000002084F8440094F94500401C10B90020A5
:1034300084F8450003F079FA03A9684602F0F5F82C
:1034400040BB2046FFF79EFFF0B1206838B903F07B
:103450005DFAA06802F051F9804603F066FA04F1C3
:103460002400039901F066FF2046FFF74EFE01F0AD
:103470005AF900289BD14FF08050D5490860BFF31E
:103480004F8FBFF36F8F92E72046FFF73EFE01F0AC
:103490004AF98CE72046FFF738FE01F044F9204650
:1034A000FFF770FF002882D0B8F1000F0BD003F0B7
:1034B0002DFA2046FFF75CFF06463146A06802F071
:1034C000F7F903F032FA002092E72DE9F0410646C1
:1034D0000F46344602F0F5F8A168884204D1E0684E
:1034E000401CE060012508E039462046FFF757FF01
:1034F000054615B1E068401CE0602846BDE8F08153
:1035000070B504460E4600254CB1A64207D80222EB
:1035100000212046FFF767FD054605B1AE6328464A
:1035200070BD2DE9FF4F81B0064615461F46344653
:1035300000BF5021EFF3118081F31188BFF34F8F4B
:10354000BFF36F8F00BF8146A06BE16B884201D350
:10355000022F37D194F945A0A06B00903A4620463F
:103560000299FFF766FD0AF10100E0B9A06C58B1BD
:10357000022F01D1009810BB2046FFF799FDF0B152
:10358000EDB1012028601AE0606A08B9012000E06E
:103590000020A0B904F1240001F04CFF78B175B10E
:1035A000012028600BE000BF01F0CEFD8346DA4524
:1035B00004D20AF1010040B284F8450000BF4FF088
:1035C000010801E04FF0000800BF89F3118800BF37
:1035D000404605B0BDE8F08F2DE9F05F06460D4688
:1035E000344600BF5021EFF3118081F31188BFF3FF
:1035F0004F8FBFF36F8F00BF8046D4F838A0E06BC9
:1036000050452ED994F945900AF10100A06309F1C3
:103610000100C0B9A06C38B12046FFF749FDF0B1F8
:10362000EDB1012028601AE0606A08B9012000E0CD
:103630000020A0B904F1240001F0FCFE78B175B1BE
:10364000012028600BE000BF01F07EFD8346D945D4
:1036500004D209F1010040B284F8450000BF0127FF
:1036600000E0002700BF88F3118800BF3846BDE89E
:10367000F09F70B504460D46206C70B1216CE06877
:103680000144E160D4E90210884201D32168E1607D
:103690002846226CE16804F0CCF870BD2DE9F741B2
:1036A00083B005460F464FF000082C4600BF03F0DC
:1036B0002DF9A66BF6B139462046FFF7DAFF701EEA
:1036C000A063206908B9012000E0002060B904F17E
:1036D000100001F0AFFE38B14FF080503C49086057
:1036E000BFF34F8FBFF36F8F03F01FF9012006B0B8
:1036F000BDE8F081059818B903F017F90020F6E746
:10370000B8F1000F04D101A801F088FF4FF00108C3
:1037100003F00BF901F035F903F0F8F894F94400DF
:10372000401C10B9002084F8440094F94500401C66
:1037300010B9002084F8450003F0F7F805A901A8A6
:1037400001F073FFF0B92046FFF71CFEA0B104F1B1
:103750002400059901F0EEFD2046FFF7D6FC00F0AD
:10376000E2FF0028A3D14FF0805019490860BFF351
:103770004F8FBFF36F8F9AE72046FFF7C6FC00F02C
:10378000D2FF94E72046FFF7C0FC00F0CCFF2046B4
:10379000FFF7F8FD00288AD00020A8E72DE9F743BD
:1037A00082B005460F464FF000082C4600BF03F0DC
:1037B000ADF8D4F83890B9F1000F20D0E66839465A
:1037C0002046FFF756FFE660606A18B9012002E064
:1037D00004ED00E0002060B904F1240001F02AFEAD
:1037E00038B14FF08050E6490860BFF34F8FBFF308
:1037F0006F8F03F09AF8012005B0BDE8F0830498BC
:1038000018B903F092F80020F6E7B8F1000F04D1E0
:10381000684601F003FF4FF0010803F086F801F05D
:10382000B0F803F073F894F94400401C10B900207C
:1038300084F8440094F94500401C10B9002084F835
:10384000450003F072F804A9684601F0EEFEF0B9F5
:103850002046FFF797FDA0B104F12400049901F080
:1038600069FD2046FFF751FC00F05DFF00289ED166
:103870004FF08050C2490860BFF34F8FBFF36F8F86
:1038800095E72046FFF741FC00F04DFF8FE720460B
:10389000FFF73BFC00F047FF2046FFF773FD0028D1
:1038A00085D00020A8E72DE9F74F054616462C469F
:1038B00000BF5021EFF3118081F31188BFF34F8FC8
:1038C000BFF36F8F00BF8046D4F838A0BAF1000F65
:1038D00028D094F9449020460199FFF7CAFEAAF136
:1038E0000100A06309F1010070B9206908B9012045
:1038F00000E00020A0B904F1100001F09BFD78B1B8
:1039000076B1012030600BE000BF01F01DFC834662
:10391000D94504D209F1010040B284F8440000BF47
:10392000012700E0002700BF88F3118800BF384658
:10393000BDE8FE8F2DE9F047054689462C4600BFBD
:103940005021EFF3118081F31188BFF34F8FBFF344
:103950006F8F00BF0746A06B48B1D4F80C80494672
:103960002046FFF786FEC4F80C80012600E0002602
:1039700000BF87F3118800BF3046BDE8F08770B5FF
:10398000044602F0C3FFA56B02F0CFFF284670BDCE
:1039900070B50446254602F0B9FFD5E90E10461A67
:1039A00002F0C3FF304670BD01460A46906B704777
:1039B000014600200EE0734A02EBC00252688A42C0
:1039C00007D100226F4B43F8302003EBC0035A604D
:1039D00002E0401C0A28EED300BF704770B50446D1
:1039E00025462846FFF7E4FF284602F0C2FE70BDD8
:1039F0000146C86C7047C1647047014691F8500099
:103A000070470146086C70470146C86B7047014615
:103A10000A46936B0BB9012000E00020704710B5F7
:103A200001460A46936BD46BA34201D1012000E00A
:103A3000002010BD10B502460B460021BBB100208E
:103A400012E0504C04EBC0046468944203D14D4C26
:103A500004EBC0010AE031B94A4C54F8304014B9C3
:103A6000484C04EBC001401C0A28EAD300BF09B14E
:103A70000B604A6010BD0246002000210AE0414B65
:103A800003EBC1035B68934203D13E4B53F8310013
:103A900002E0491C0A29F2D300BF70472DE9F0412A
:103AA00005460E4617462C4602F030FF94F94400B6
:103AB000401C10B9002084F8440094F94500401CD3
:103AC00010B9002084F8450002F02FFFA06B28B940
:103AD0003A46314604F1240001F061FC2046FFF72C
:103AE00014FBBDE8F08170B5044600220421204695
:103AF000FFF779FA0546284670BD70B504460E46B4
:103B000002F004FFA06C08B1002505E0A06B08B12D
:103B1000002501E0A664012502F007FF284670BDDC
:103B20002DE9F04105460F462E46B06CB84201D053
:103B300000240AE0B06B08B1002406E002F0E6FEC3
:103B40000020B06402F0F1FE01242046BDE8F081BF
:103B500038B505460C4600200090224669462846A6
:103B6000FFF79CFD009838BD38B504460020009052
:103B7000002269462046FFF796FE009838BD0000F7
:103B800004ED00E0700300202DE9F04704460D46E7
:103B900016461F46DDE9099ADDF8208028212046D7
:103BA00003F060FEA561A660E76084F81C80002039
:103BB0006062BDE8F0872DE9FE4F04460F4690464F
:103BC0009946DDF830A0B8F1010F01D1012605E0DA
:103BD000B8F1020F01D1042600E0002607B9012741
:103BE00004F12900844206D2641C04F1280002F08A
:103BF0001BFD054600E0002545B13B46224605F188
:103C0000280128468DE84006FFF7BEFF2846BDE89C
:103C1000FE8F70B504462546287F00F0020018B9D3
:103C2000284602F0A6FD03E02821284603F01AFEEC
:103C300070BD2DE9FE4305462C4600260027B04600
:103C4000D4F8209002F062FE206968B9606958B922
:103C5000207F8DE881012046D4E90223A169FFF786
:103C600093FFC4F82090012602F05FFE3046BDE8C5
:103C7000FE832DE9FE4F05462C460027B846B9467F
:103C8000D4F820A000BF5021EFF3118081F31188F8
:103C9000BFF34F8FBFF36F8F00BF0646206968B92F
:103CA000606958B9207F8DE801032046D4E90223DA
:103CB000A169FFF769FFC4F820A0012700BF86F3C0
:103CC000118800BF3846BDE8FE8F10B50246134686
:103CD00001B901219C688C4202D9D960012000E021
:103CE000002010BD30B50246114600BF0B680D68BC
:103CF0008C6860194C68001B0C689C42F6D1401E11
:103D00008C68844201D88C68001B30BD0146D1E923
:103D10000132D0180A68801A8A68824201D88A68FB
:103D2000801A704770B5044625462846FFF7EEFF17
:103D30000646304670BD2DE9F041054688461646D8
:103D40001C46A868001BB04202D2A868001B00E015
:103D500030460746A96908193A46414603F069FD0D
:103D6000BE4205D9F21B08EB0701A86903F061FD0B
:103D70003444A868A04201D8A868241A2046BDE8A7
:103D8000F0812DE9F84305460F4614461E46DDF83E
:103D90002090D5F80480287F00F0010060B10094E5
:103DA0004E4507D34346042269462846FFF7C3FF22
:103DB000804607E0002405E0B44201D2204600E03E
:103DC0003046044634B14346224639462846FFF77A
:103DD000B2FF68602046BDE8F8832DE9FF4F83B04D
:103DE00006468B46924634464FF000085546C1467B
:103DF000A068A0F10109207F00F0010028B12D1D6D
:103E00004D4505D90020069002E04D4500D94D46AC
:103E1000069848B301A801F0F4FB00BF02F076FD5C
:103E20002046FFF75FFF8046A84507D20020616A61
:103E300002F0B5F801F045FC606102E002F075FDAA
:103E400011E002F072FD0698009000231A46194610
:103E5000606A01F0FBFD0020606106A901A801F085
:103E6000E4FB0028DAD000BFB8F1000F03D12046F0
:103E7000FFF738FF80464346524659462046009594
:103E8000FFF77FFF0746AFB12046FFF73FFFE1682E
:103E900088420FD300F075FD206948B100200090E2
:103EA000616A206900231A4601F033FE0020206178
:103EB00000F039FC384607B0BDE8F08F2DE9FE4F21
:103EC00005468B46904699462C46C246207F00F018
:103ED000010008B10AF1040A2046FFF703FF02902F
:103EE000CDF800A0424659462046029BFFF749FF05
:103EF000064626B32046FFF709FFE16888421ED335
:103F000000BF00BF5021EFF3118081F31188BFF390
:103F10004F8FBFF36F8F00BF0746206950B100205D
:103F2000CDE90009616A206900231A4601F096FE76
:103F30000020206100BF87F3118800BF00BF30461A
:103F4000BDE8FE8F2DE9F0410546884616461C4621
:103F5000A868001BB04202D2A868001B00E03046EF
:103F60000746A86901193A46404603F062FCBE4282
:103F700005D9F21B08EB0700A96903F05AFC344489
:103F8000A868A04201D8A868241A2046BDE8F0819C
:103F90002DE9F84F0446894616461F46D4F800A07E
:103FA000207F00F0010060B153460422694620469C
:103FB000FFF7C8FF8246009D3F1FB54202D900258A
:103FC00000E03546BD4201D2284600E03846804632
:103FD000B8F1000F06D05346424649462046FFF747
:103FE000B1FF20604046BDE8F88F2DE9F84F054647
:103FF0008A46934698462C464FF00009207F00F0F1
:10400000010008B1042706E0207F00F0040008B199
:10401000E76800E00027B8F1000F21D002F076FC3D
:104020002046FFF773FE0646BE4206D80020616AAE
:1040300001F0B5FF01F045FB206102F076FCBE42C5
:1040400012D8CDF8008000231A461946606A01F0A4
:10405000FDFC002020612046FFF758FE064603E0E5
:104060002046FFF753FE0646BE421BD933465A464A
:1040700051462046FFF78CFF8146B9F1000F11D061
:1040800000BF00F07EFC686948B100200090696ABA
:10409000686900231A4601F03CFD0020686100F0C9
:1040A00042FB00BF4846BDE8F88FF8B505462E46EE
:1040B000307F00F0010078B13046FFF727FE074659
:1040C000042F07D93368042269463046FFF73AFFC8
:1040D000009C02E0002400E000242046F8BD2DE909
:1040E000FF4F83B006468B46994634464FF0000A90
:1040F000207F00F0010008B1042700E000272046DF
:10410000FFF704FE0546BD4228D92B4659462046F6
:10411000059AFFF73DFF8246BAF1000F1ED000BF9F
:1041200000BF5021EFF3118081F31188BFF34F8F4F
:10413000BFF36F8F00BF8046606950B10020CDE9AA
:104140000009616A606900231A4601F087FD0020BA
:10415000606100BF88F3118800BF00BF504607B000
:10416000BDE8F08F10B501460A46136854689C42BA
:1041700001D1012000E0002010BDF0B50446274623
:10418000387F00F0010008B1042600E00026204638
:10419000FFF7A8FDB04201D8012500E00025284620
:1041A000F0BD2DE9FC41054688462C4600BF502154
:1041B000EFF3118081F31188BFF34F8FBFF36F8F3F
:1041C00000BF0746206960B10020CDE90008616AA0
:1041D000206900231A4601F041FD002020610126DC
:1041E00000E0002600BF87F3118800BF3046BDE81D
:1041F000FC812DE9FC41054688462C4600BF502134
:10420000EFF3118081F31188BFF34F8FBFF36F8FEE
:1042100000BF0746606960B10020CDE90008616A0F
:10422000606900231A4601F019FD00206061012633
:1042300000E0002600BF87F3118800BF3046BDE8CC
:10424000FC8101460A46506A704702465162704737
:104250000146086A7047016270470146087F00F016
:104260000100704700BF502080F31188BFF34F8FCB
:10427000BFF36F8F00BF00BFFEE72DE9F05F8146FF
:104280000E4690469A460A9F0C9C4FEA8801A5224A
:10429000206B03F0E0FAA8F10100216B01EB800B29
:1042A0002BF0070B7EB1002507E0715D04F13400AF
:1042B0004155705D00B902E06D1C102DF5D300BFB3
:1042C000002143200155202F00D31F27E762E76418
:1042D000201DFEF7E6FD04F11800FEF7E2FD246163
:1042E000C7F12000A061646252464946584602F078
:1042F000DEFA20600B9808B10B980460BDE8F09FCF
:104300002DE9FF5F0746884616469946DDE90EAB64
:10431000B00002F089F9054675B15C2002F084F91D
:1043200004462CB15C21204603F09CFA256304E08E
:10433000284602F01EFA00E0002454B100204B464B
:1043400032464146CDE900ABCDE902403846FFF7A1
:1043500094FF204604B0BDE8F09F10B5002407E0AC
:1043600004EB8401FA4A02EB8100FEF78DFD641C28
:10437000202CF5D3F748FEF787FDF748FEF784FDBC
:10438000F648FEF781FDF648FEF77EFDF548FEF79C
:104390007BFDF048F4490860EF48F449086010BD1F
:1043A00010B5044602F0B2FAF1480068401CF0492A
:1043B0000860F048006840B9EE48046008460068AC
:1043C00001280DD1FFF7C9FF0AE0EB48006838B9B2
:1043D000E8480068C06AE16A884201D8E54804609C
:1043E000E6480068401CE5490860084600686064CB
:1043F00000BF94F82C1001208840E1490968084367
:10440000DF49086000BFE16A01EB8101D04A02EB9D
:1044100081014868A0608268E260211D8268516065
:104420008160E16A01EB8101C94A02EB81026261AC
:10443000E16A01EB8101C64A52F82110491CE26A87
:1044400002EB8202C24B43F8221000BF00BF02F011
:104450006CFAC948006878B100BFC6480068C06AF5
:10446000E16A884207D24FF08050C6490860BFF326
:104470004F8FBFF36F8F00BF10BD2DE9FC5F064665
:104480000F4690469946DDE90CAB4B46424639460D
:104490003046CDE900ABFFF733FF054625B128468E
:1044A000FFF77EFF012401E04FF0FF342046BDE816
:1044B000FC9F10B50446206B02F05BF9204602F029
:1044C00058F910BDA8480068006808B9012000E04C
:1044D000002020B14FF0FF30AB49086005E0A24852
:1044E0000068C0680068A849086070472DE9F0417D
:1044F0000546002602F00AFA15B99E48006800E059
:1045000028460446201DFEF7F5FC88B900BFE06A86
:1045100000EB80008E4951F8200040B994F82C102F
:10452000012088409649096881439548016000BF91
:10453000A06A18B104F11800FEF7DCFC8F4800688F
:10454000401C8E4908608B480068844201D10120DC
:1045500000E0002007468848006858B157B1211D87
:104560007F48FEF7A1FC89480068401C8749086025
:10457000012606E07E480068401E7D490860FFF77E
:10458000A1FF02F0D2F9012E02D02046FFF791FFE1
:104590007948006858B177480068844207D14FF0E5
:1045A000805078490860BFF34F8FBFF36F8FBDE82D
:1045B000F0812DE9F04100277548006800287DD181
:1045C00074480068451C7348056095B900BF66488B
:1045D000D0F8008065480068634908606348C0F807
:1045E00000806D480068401C6B490860FFF76AFF57
:1045F00000BF6548006885427DD300BF5A48006807
:10460000006808B9012000E0002020B14FF0FF3021
:104610005D4908606EE054480068C068C468666818
:10462000B54202D25848066064E000BF6069D4E930
:1046300002128A60D4E902214A60211D42688A423E
:1046400001D1E1684160002262610168491E016098
:1046500000BFA06AA0B100BFA06AD4E907128A60B7
:10466000D4E907214A6004F1180142688A4201D165
:10467000216A41600022A2620168491E016000BFF8
:1046800000BF94F82C10012088403D490968084378
:104690003B49086000BFE16A01EB81012C4A02EB53
:1046A00081014868A0608268E260211D82685160D3
:1046B0008160E16A01EB8101254A00E02BE002EB19
:1046C00081026261E16A01EB8101214A52F8211005
:1046D000491CE26A02EB82021D4B43F8221000BF24
:1046E00000BF2449E06A0968C96A884286D901275F
:1046F00084E700E000BF1F480068C06A00EB80004C
:10470000134951F82000012800D9012723480068E7
:1047100000B1012704E022480068401C20490860DD
:104720003846BDE8F0812DE9F0410024002702F071
:10473000EDF8002516480068401E15490860084637
:10474000006800287ED10A48006800287AD090E0EE
:10475000C003002040060020540600206806002008
:104760007C060020900600204C0100205001002013
:10477000580100204801002064010020740100203D
:104780006001002004ED00E07801002054010020C9
:10479000840100205C010020700100206C010020D9
:1047A00068010020FC48C068C46800BFA06AD4E962
:1047B00007128A60D4E907214A6004F118014268AF
:1047C0008A4201D1216A41600022A2620168491E29
:1047D000016000BF00BF6069D4E902128A60D4E9B9
:1047E00002214A60211D42688A4201D1E16841608C
:1047F000002262610168491E016000BF00BF94F899
:104800002C1001208840E54909680843E349086005
:1048100000BFE16A01EB8101E14A02EB81014868D6
:10482000A0608268E260211D826851608160E16A57
:1048300001EB8101DA4A02EB81026261E16A01EB7C
:10484000810100E041E0D64A52F82110491CE26A99
:1048500002EB8202D24B43F8221000BF00BFD149C5
:10486000E06A0968C96A884203D90120CE4941F843
:104870002500C948006808B9012000E00020002890
:1048800090D00CB1FFF71EFEC84806686EB100BF9D
:10489000FFF78FFE18B10120C34941F82500761EAD
:1048A000002EF5D10020C1490860BF4850F825000E
:1048B00058B1012700BFBB4800683807BC490860F1
:1048C000BFF34F8FBFF36F8F00BF02F02EF8384653
:1048D000BDE8F0812DE9F04705460E46B54807686A
:1048E000B548D0F80080B548D0F80090AD480068D1
:1048F000001DFEF7FFFA50B9AA48006890F82C1086
:1049000001208840A54909688143A4480160681CCA
:10491000E0B9DEB100BFAA494868A24909688860C9
:10492000A04982680968CA609E490968091D8268B1
:1049300051609C490968091D8160A14A994909682B
:104940004A6111460968491C116018E07C199548B4
:1049500000684460BC4206D292480168091D48467E
:10496000FEF7AEFA0BE08F480168091D4046FEF7DE
:10497000A7FA94480068844201D292480460BDE8D6
:10498000F08791480068401C8F49086070472DE906
:10499000F047044688464FF00009FFF7F2FF8548CC
:1049A0000668206800EB08052068B04207D9206837
:1049B000A8420BD9B54209D94FF0010906E0206899
:1049C000A84201D8B54201D94FF001092560B9F1DB
:1049D000000F03D0A81B0021FFF77CFFFFF7A3FE09
:1049E00007463FB94FF0805071490860BFF34F8FC1
:1049F000BFF36F8F4846BDE8F08770B504460025C9
:104A000044B1FFF7BEFF00212046FFF763FFFFF729
:104A10008AFE05463DB94FF0805065490860BFF3F6
:104A20004F8FBFF36F8F70BD2DE9F04707463E46AD
:104A30005C480068864201D1002434E001F066FF42
:104A40007569D6F828805C48D0F800905B48D0F8AB
:104A500000A001F06AFF5048804501D1012422E006
:104A60004D4501D0554501D102241CE054488542F2
:104A700012D1B06A70B90324002007E006F1580192
:104A8000095C012901D1022402E0401C0128F5DB68
:104A900000BF08E0022406E04C48854200D00DB972
:104AA000042400E001242046BDE8F08770B50446E8
:104AB00001F02CFF14B93B48006800E02046064690
:104AC000F56A01F032FF284670BD70B5024600BF9E
:104AD0005025EFF3118485F31188BFF34F8FBFF397
:104AE0006F8F00BF214612B92E4C246800E0144697
:104AF0002346D86A00BF81F3118800BF70BD70B52E
:104B0000044601F003FF14B92648006800E020467F
:104B10000646F56C01F009FF284670BD70B50246E7
:104B200000BF5025EFF3118485F31188BFF34F8F39
:104B3000BFF36F8F00BF214612B91A4C246800E002
:104B400014462346D86C00BF81F3118800BF70BDA6
:104B50002DE9F04780460D464FF00009202D00D387
:104B60001F2501F0D3FEB8F1000F02D10D480068F7
:104B700000E040460446E66CAE427DD0B54227D9FF
:104B80000848006884422DD006480068C06AA842E0
:104B900028D24FF0010925E06806002060010020BE
:104BA000C0030020480100206C01002068010020A3
:104BB00004ED00E05C0100204C01002050010020C9
:104BC0009006002078010020840100207C0600204F
:104BD000FB480068844201D1012000E00020012848
:104BE00000D18146E76AE16AE06C884202D0E06A5F
:104BF000A84200D2E562E564A06900F0004010B967
:104C0000C5F12000A06107EB8701EE4A02EB8101AC
:104C10006069884201D1012000E0002068B3201DB6
:104C2000FEF768F930B90120B840E74909688143C7
:104C3000E548016000BF94F82C1001208840E2494B
:104C400009680843E049086000BFE16A01EB81019F
:104C5000DC4A02EB81014868A0608268E260211DA5
:104C6000826851608160E16A01EB8101D54A02EB03
:104C700081026261E16A01E01CE00DE001EB81016B
:104C8000D04A52F82110491CE26A02EB8202CD4B55
:104C900043F8221000BF00BFB9F1000F09D000BFD8
:104CA0004FF08050C9490860BFF34F8FBFF36F8F3B
:104CB00000BF00BF01F039FEBDE8F08710B5C44861
:104CC000006818B10120C349086041E00020C149D3
:104CD000086000BFBA480068026B4FF0A534106846
:104CE000B0F1A53F0BD15068B0F1A53F07D1906856
:104CF000B0F1A53F03D1D068B0F1A53F08D0B048CE
:104D0000006800F134031946AD480068FFF7AAFABD
:104D100000BF00BFAC480068B0FA80F0C0F11F01CE
:104D200000BF01EB8102A74B03EB8200426852688F
:104D3000426000F108024368934201D1C2684260B8
:104D40004268D2689E4B1A6000BF00BF18460068D8
:104D500010BD70B5054601F0D9FD15B99848006839
:104D600000E028460446201DFEF7C4F888B900BFBD
:104D7000E06A00EB8000934951F8200040B994F8B4
:104D80002C10012088409049096881438E480160B9
:104D900000BFA06A18B104F11800FEF7ABF8211D9E
:104DA0008D48FEF781F8002009E004F15801095C04
:104DB000012903D1002204F158010A54401C0128A2
:104DC000F3DB01F0B2FD8548006828B101F09EFDDB
:104DD000FFF778FB01F0A9FD79480068844217D1FC
:104DE0007E48006840B14FF0805078490860BFF3BA
:104DF0004F8FBFF36F8F0BE07748066878480068E5
:104E0000864203D100206E49086001E0FFF756FF9B
:104E100070BD10B50246002311466F4C4869A04290
:104E200001D1012000E00020E0B16E4C886AA04270
:104E300001D1012000E00020A0B9886A08B9012052
:104E400000E0002070B10123002007E001F15804C8
:104E5000245C012C01D1002302E0401C0128F5DB79
:104E600000BF00BF184610BD70B505462C4654481B
:104E7000006884424CD0002C4AD001F047FD204607
:104E8000FFF7C7FF002841D0201DFEF733F800BF11
:104E900094F82C10012088404B49096808434A497E
:104EA000086000BFE16A01EB8101464A02EB810123
:104EB0004868A0608268E260211D8268516081605C
:104EC000E16A01EB81013F4A02EB81026261E16A22
:104ED00001EB81013B4A52F82110491CE26A02EBC6
:104EE0008202384B43F8221000BF00BF00BF344895
:104EF0000068C06AE16A884207D24FF080503349A7
:104F00000860BFF34F8FBFF36F8F00BF01F00DFD3F
:104F100070BD2DE9F04106460027344600BF502100
:104F2000EFF3118081F31188BFF34F8FBFF36F8FC1
:104F300000BF05462046FFF76CFF002859D02448E3
:104F40000068002850D11E49E06A0968C96A884291
:104F500003D9012701201F490860201DFDF7CAFF62
:104F600000BF94F82C1001208840174909680843B5
:104F70001549086000BFE16A01EB8101114A02EBAB
:104F800081014868A0608268E260211D82685160EA
:104F90008160E16A01EB81010A4A02EB81026261F0
:104FA000E16A01EB8101074A52F82110491CE26ACB
:104FB00002EB8202034B43F8221000BF19E000000D
:104FC00048010020C00300206001002004ED00E043
:104FD000840100206C010020900600206401002064
:104FE000580100206806002004F11801FE48FDF772
:104FF0005BFF00BF85F3118800BF3846BDE8F08134
:1050000010B516E001F082FCF848C068C468201DA5
:10501000FDF770FFF6480068401EF5490860F54846
:105020000068401EF349086001F07FFC2046FFF74E
:1050300040FAF04800680028E4D110BD00BFFFF737
:10504000DFFFED4800680128F9D94FF08050EB49A7
:105050000860BFF34F8FBFF36F8FF0E7F0B587B0F5
:1050600001260027002408E0E5A0005D03A90855FB
:1050700003A8005D00B902E0641C102CF4DB00BF43
:10508000002510E0E04FE14800EB850000210B46D1
:105090008022CDE9001003A93846FFF7EEF9064655
:1050A00006B902E06D1C012DECDB00BF304607B0F5
:1050B000F0BD10B5FFF7D2FF0446012C02D101F07C
:1050C00067F90446012C14D100BF502080F31188E9
:1050D000BFF34F8FBFF36F8F00BF4FF0FF30CC494E
:1050E00008600120CB4908600020CB49086001F02E
:1050F000F7FBCA48006810BD70B501F0F5F9054628
:10510000FFF7F4F9002405E0C04951F82400FFF747
:10511000EDF9641C012CF7DBFFF772FF00BF502094
:1051200080F31188BFF34F8FBFF36F8F00BF002054
:10513000B849086001F0E9FB70BDB74908687047DD
:105140000021B54A10687047A948006870470146B9
:1051500011B9B348006800E00846024602F1340085
:1051600070470146002001E0491C401C0A78A52A2E
:10517000FAD0800870472DE9F04107460C4690466A
:105180001E4617B9A648006800E038460546256067
:1051900005F134006060E86A2061286BE061686CAA
:1051A000A060E86C60610020A061052E35D09C48AD
:1051B0000068854201D1012000E00020012802D1D1
:1051C000002020732DE02673032E17D1FFF7D9FBA3
:1051D000A86A10B1022020730EE0002008E005F15B
:1051E0005801095C012902D10221217302E0401C0F
:1051F0000128F4DB00BF00BFFFF795FA01F086FB42
:105200007949A86A884201D1012000E0002008B154
:105210000120207301F089FB03E02846FFF704FC1E
:105220002073B8F1000F04D0286BFFF79AFF2062BB
:1052300001E000202062BDE8F0812DE9F04707463B
:105240000C469046002604F10809B246206880B159
:10525000E5680CE0D5F80CA006EBC60007EB800172
:10526000434601225046FFF786FF761C6D684D4588
:10527000F0D13046BDE8F0872DE9F041054688467B
:10528000164600242027FFF77CFB5948006880451C
:1052900039D300BF7F1E07EB8702574B03EB820118
:1052A00004EBC40205EB82000122FFF7C6FF0444B1
:1052B000002FEFD104EBC40105EB81000222594914
:1052C0000968FFF7BAFF044404EBC40105EB810051
:1052D000022255490968FFF7B0FF044404EBC401FA
:1052E00005EB810004224149FFF7A7FF044404EBCA
:1052F000C40105EB810003224C49FFF79EFF0444E3
:105300000EB100203060FFF70EFA2046BDE8F081B4
:1053100070B50446FFF735FB01F0F8FA4448006821
:1053200020444349086001F000FBFFF7FCF9054603
:10533000284670BD70B505460C46394801681831DD
:105340002846FDF7BDFD01212046FFF7C3FA70BDD9
:1053500070B504460D46164645F0004030490968D0
:10536000886100BF60682E490968C8612C4982685D
:1053700009680A622A490968183182685160284917
:10538000096818318160264909688C622168491CC6
:10539000216000BF01213046FFF79CFA70BD70B557
:1053A00004460E46154600BF60681D490968C8617D
:1053B0001B49826809680A621949096818318268BC
:1053C00051601749096818318160154909688C6274
:1053D0002168491C216000BF0DB14FF0FF362946FE
:1053E0003046FFF777FA70BD680600207C06002083
:1053F0005801002054010020C003002004ED00E00B
:1054000049444C45000000003D5000087C0100204C
:1054100078010020640100205C0100208001002050
:10542000480100204C01002050010020900600207F
:105430006801002070B50346D868C16800BF886A5B
:10544000D1E90745A560D1E90754656001F1180469
:105450004568A54201D10C6A446000258D6204684C
:10546000641E046000BFFE480068002842D100BFEF
:105470004869D1E90245A560D1E9025465600C1D77
:105480004568A54201D1CC68446000254D6104689F
:10549000641E046000BF00BF91F82C400120A040B2
:1054A000F04C24682043EF4C206000BFCC6A04EB32
:1054B0008404ED4D05EB8404606888608568CD60E8
:1054C0000C1D85686C608460CC6A04EB8404E64D36
:1054D00005EB84054D61CC6A04EB8404E24D55F87C
:1054E0002440641CCD6A05EB8505DF4E46F8254057
:1054F00000BF11E000BFDD4C6068C86185680D62C7
:1055000001F1180485686C608460D84D8D622C466A
:105510002468641C2C6000BFD54CC86A2468E46A07
:10552000A04204D901220120D24C206000E00022D8
:10553000104670BD70B502460B4643F00041116045
:10554000D06800BF1169D2E90154AC60D2E90145CD
:105550006C604C68944201D194684C6000241461E2
:105560000C68641E0C6000BF00BF4169D0E90245B1
:10557000A560D0E902546560041D4D68A54201D1C3
:10558000C4684C60002545610C68641E0C6000BF57
:1055900000BF90F82C400121A140B24C2468214367
:1055A000B04C216000BFC46A04EB8404AE4D05EB2F
:1055B0008404616881608D68C560041D8D686C60BD
:1055C0008C60C46A04EB8404A74D05EB8405456137
:1055D000C46A04EB8404A44D55F82440641CC56AD5
:1055E00005EB8505A04E46F8254000BF00BFA04C46
:1055F000C16A2468E46AA14202D901219D4C21605C
:1056000070BD10B5044601F081F99B480068206028
:105610009A480068606001F088F910BD96490968F1
:105620000160964909684160704770B506460C46AE
:1056300001F06CF9914802687068131A2068401CE8
:1056400008B9002519E08C4930680968884206D0FD
:105650007068904203D80125002020600DE020688A
:10566000984207D92068C01A20603046FFF7D6FF5D
:10567000002502E000202060012501F056F92846AF
:1056800070BD01207B4908607047014611B10A4690
:10569000906C00E00020704708B1024691647047AA
:1056A0002DE9F041044614B97148006800E0204635
:1056B00007463D6B2846FFF754FD06463046BDE8D9
:1056C000F0816B490868704701460020002903DB20
:1056D000012901DA012200E000220AB1644A1068BF
:1056E00070476749096809B9012005E05C49096804
:1056F00009B9022000E00020704770B505462C462D
:105700000026002D6AD05A49E06A0968C96A8842B1
:105710005DD2A06900F0004028B955480068C06A11
:10572000C0F12000A061E16A01EB81014E4A02EB69
:1057300081016069884201D1012000E00020002839
:105740003FD0201DFDF7D6FB40B994F82C10012066
:1057500088404449096881434248016044480068E0
:10576000C06AE06200BF94F82C10012088403D49D7
:10577000096808433B49086000BFE16A01EB810109
:10578000394A02EB81014868A0608268E260211D0D
:10579000826851608160E16A01EB8101324A02EB6B
:1057A00081026261E16A01EB81012F4A52F8211006
:1057B000491CE26A02EB82022B4B43F8221000BF25
:1057C00003E02B480068C06AE062012606E0284931
:1057D000E06C0968C96A884200D20126304670BD73
:1057E00070B505462C460026002D5FD0206D401E6A
:1057F0002065E16CE06A884258D0206D002855D1C0
:10580000201DFDF777FB40B994F82C10012088404B
:1058100014490968814313480160E06CE062E06A62
:10582000C0F12000A06100BF94F82C100120884036
:105830000C49096808430B49086000BFE16A01EBA5
:105840008101094A02EB81014868A0608268E26038
:10585000211D826851608160E16A01EB810111E0E4
:105860008401002060010020C003002068060020A1
:10587000480100206C010020700100205C01002024
:1058800064010020FE4A02EB81026261E16A01EBE1
:105890008101FB4A52F82110491CE26A02EB8202A4
:1058A000F74B43F8221000BF00BF0126304670BD01
:1058B0002DE9F04706460F4634464FF00109002E09
:1058C0005DD0E06CB84201D23D4600E0E56CE06A94
:1058D000A84254D0206D012851D1D4F82C80E56223
:1058E000A06900F0004010B9C5F12000A06108EBEC
:1058F0008801E34A02EB81016069884201D10120FD
:1059000000E00020D8B3201DFDF7F4FA40B994F868
:105910002C1001208840DB4909688143D948016087
:1059200000BF94F82C1001208840D649096808432C
:10593000D449086000BFE16A01EB8101D04A02EB63
:1059400081014868A0608268E260211D8268516020
:105950008160E16A01EB8101C94A02EB8102626167
:10596000E16A01EB8101C64A52F82110491CE26A42
:1059700002EB8202C24B43F8221000BF00BFBDE819
:10598000F087C14909688869BF490968C96AC1F1D6
:105990002001BD4A126891617047BB49086810B187
:1059A000016D491C016570472DE9F04704468846A2
:1059B00016464FF00009FEF7E4FF00F0A7FFB248DB
:1059C0000068543050F8240030B90121AE48006816
:1059D0005830015506B1894600F0A7FFB9F1010F13
:1059E00003D101213046FEF775FFFEF79CFE074606
:1059F000B9F1010F08D13FB94FF08050A3490860B9
:105A0000BFF34F8FBFF36F8F00F080FF9E48006899
:105A1000543050F824507DB1B8F1000F06D0002169
:105A200099480068543040F8241005E0681E9649F3
:105A30000968543141F82400002193480068583027
:105A4000015500F072FF2846BDE8F0872DE9F05FB0
:105A50000446884691461D46DDF828A04FF0000B0D
:105A6000FEF78FFF00F052FF874800685830005D56
:105A7000022811D084490968543101EB840001687F
:105A800021EA0801016001217F4800685830015572
:105A9000BAF1000F00D08B4600F047FFBBF1010FB9
:105AA00003D101215046FEF715FFFEF73CFE0746E5
:105AB000BBF1010F08D13FB94FF080507349086026
:105AC000BFF34F8FBFF36F8F00F020FF2DB16E48F3
:105AD0000068543050F8240028606B480068583043
